:100000001DC024C023C022C021C020C01FC01EC0EC
:100010001DC01CC01BC01AC019C018C017C016C014
:1000200015C014C013C01BC01DC01FC021C023C0F9
:1000300025C027C029C02BC02DC02FC011241FBE32
:10004000CFE5D4E0DEBFCDBFA8D0E5C5D9CF90E0E5
:100050008B30910528F5FC01ED5EFF4F099485E09A
:1000600082BB08958DED82BB089586E482BB08951E
:1000700084E582BB08958CE982BB089584E382BB4A
:10008000089584E282BB08958DE582BB089584E0E3
:1000900082BB089584E182BB08958BEF82BB0895F3
:1000A0008FEF82BB0895823061F0833091F0813010
:1000B000C1F49D9903C089E088BB089581E088BBA5
:1000C00008959D9903C08AE088BB089582E088BBAB
:1000D00008959D9903C08CE088BB089584E088BB97
:1000E00008959D9903C088E088BB089518BA0895C3
:1000F0008F929F92AF92BF92CF92DF92EF92FF9238
:100100000F931F93CF93DF93862E552314F4495FEB
:100110005F4F6A01D594C794D594C794D594C7947A
:10012000DD2024F52DC0CF5FB80124D5B62ED72F02
:100130008EDF8C2FB8DF8FE99FE00197F1F700C0C9
:1001400000008B2D9D2FC33071F78AE080DF882D52
:10015000AADF8FE99FE00197F1F700C000009FEF51
:10016000E91AF90ACE14DF043CF40AC0E12CF12CA0
:10017000982EA92E0AE010E0892D9A2DC0E0D3CF49
:10018000DF91CF911F910F91FF90EF90DF90CF9073
:10019000BF90AF909F908F900895CF93DF93CDB78E
:1001A000DEB76F970FB6F894DEBF0FBECDBF8FE0FE
:1001B00087BB8FEF81BB14BA87E085BB85E08EBD1E
:1001C0001DBC1CBC84E088BF80E090E0FAD4698745
:1001D0007A878B879C871A8A1B8A1C8A1D8A26E647
:1001E0002E8786E68F8796E6988B20E4298B1982E6
:1001F0001A821B821C821A8E1B8E1C8E1D8E1E8ADA
:100200001F8A188E198E1D821E821F821886412C0D
:10021000512C612C712C20E033243394212C972C09
:10022000862C5E8E4F8E04C0212F902E872C6E8ED2
:1002300083B3807290E0132D009709F0122D33B331
:10024000032D30FBAA24A0F8B12C30FD022D33B3CE
:100250003270E32EF12C732CE114F10409F0722CAE
:1002600033B33470432E512C632C4114510409F0E4
:10027000622C211172C0892B09F06FC02FE135E883
:100280004BE050E46D817E818F8198855DD26D83D6
:100290007E838F8398872FE135E84BE050E46985B2
:1002A0007A858B859C8550D269877A878B879C87D6
:1002B00008B602FE0EC084E088BF198290E49D87D4
:1002C0000F2EFCE1CF2EF02D0F2EF6E4DF2EF02DB9
:1002D0001BC06CB57DB580E090E037D32DEB37E3E4
:1002E00046E059E3E4D369837D87C82ED92E262FB3
:1002F000372F482F592F6A897B898C899D8924D271
:100300006A8B7B8B8C8B9D8B1DBC1CBC29813D8596
:100310004C2D5D2D6FE175E88BE090E47DD26E8B06
:100320007F8B888F998F2A893B894C895D896D8164
:100330007E818F81988570D26A8F7B8F8C8F9D8F05
:1003400029813D854C2D5D2D60E070E080E792E4D1
:1003500063D269837A838B839C8383B3877079F4B8
:1003600040E050E0BA0180E090E030D42FEF87E821
:1003700093E1215080409040E1F700C000009110CF
:100380000AC0AB2841F42F8D822F90E0019665E0E2
:1003900070E0F0D38F8F81101CC0EF28D1F420E0E3
:1003A00030E040E450E46E857F858889998930D2B9
:1003B00088233CF01E861F8680E8888B9FE3998BFC
:1003C00008C026E62E8786E68F8796E6988B20E47F
:1003D000298B8E8D811109C0452839F449855A85AC
:1003E0006B857C8580E090E0F1D39F8D923009F49D
:1003F000B9C030F4992361F0913009F46DC014CF85
:100400002F8D233009F4F4C0243009F438C10CCF07
:1004100020E030E048EC52E46D817E818F81988548
:10042000F7D1882394F420E030E040E251E46D817C
:100430007E818F8198853BD357D2DC01CB0140E090
:1004400050E062E070E054DEEFCE20E030E04AE7BA
:1004500054E46D817E818F819885DAD188236CF494
:100460006D817E818F8198853FD2DC01CB0140E098
:1004700050E061E070E03CDED7CE20E030E543ECB8
:1004800057E46D817E818F819885C2D1882394F451
:100490002AE037ED43E25CE36D817E818F819885B0
:1004A00006D322D2DC01CB0140E050E062E070E0F4
:1004B0001FDEBACE2FE632E143E85AE36D817E813A
:1004C0008F819885F4D210D2DC01CB0140E050E05E
:1004D00061E070E00DDEA8CE2E853F854889598900
:1004E0006E897F89888D998DE2D26B017C0120E035
:1004F00030E040E251E48CD1882384F420E030E005
:1005000048EC52E4C701B601D2D2EED1DC01CB01F6
:1005100040E050E063E070E0EBDD86CE20E030E0CC
:1005200048EC52E4C701B60173D1882384F420E07B
:1005300030E040E251E4C701B601B9D2D5D1DC01C7
:10054000CB0140E050E062E070E0D2DD6DCEC7014B
:10055000B601CAD1DC01CB0140E050E061E070E0BF
:10056000C7DD62CE2E853F85488959896A8D7B8D8E
:100570008C8D9D8D9CD26B017C0120E030E040E2AF
:1005800051E446D1882384F420E030E048EC52E482
:10059000C701B6018CD2A8D1DC01CB0140E050E00C
:1005A00063E070E0A5DD40CE20E030E048EC52E4AE
:1005B000C701B6012DD1882384F420E030E040E269
:1005C00051E4C701B60173D28FD1DC01CB0140E009
:1005D00050E062E070E08CDD27CEC701B60184D127
:1005E000DC01CB0140E050E061E070E081DD1CCE39
:1005F00020E030E040E251E469817A818B819C8186
:1006000007D1882394F420E030E048EC52E469817B
:100610007A818B819C814BD267D1DC01CB0140E098
:1006200050E063E070E064DDFFCD20E030E048ECB6
:1006300052E469817A818B819C81EAD0882394F489
:1006400020E030E040E251E469817A818B819C8135
:100650002ED24AD1DC01CB0140E050E062E070E0F4
:1006600047DDE2CD69817A818B819C813DD1DC01BE
:10067000CB0140E050E061E070E03ADDD5CD20E014
:1006800030E048EC52E469857A858B859C85C0D042
:10069000882394F420E030E040E251E469857A85D3
:1006A0008B859C8504D220D1DC01CB0140E050E059
:1006B00062E070E01DDDB8CD20E030E04AE754E4B0
:1006C00069857A858B859C85A3D088236CF46985A0
:1006D0007A858B859C8508D1DC01CB0140E050E018
:1006E00061E070E005DDA0CD20E030E543EC57E4AB
:1006F00069857A858B859C858BD0882394F42AE044
:1007000037ED43E25CE369857A858B859C85CFD1A3
:10071000EBD0DC01CB0140E050E062E070E0E8DCCF
:1007200083CD2FE632E143E85AE369857A858B85EC
:100730009C85BDD1D9D0DC01CB0140E050E061E027
:1007400070E0D6DC71CD5058BB27AA270ED075C1FA
:1007500066D130F06BD120F031F49F3F11F41EF4DC
:100760005BC10EF4E095E7FB51C1E92F77D180F32F
:10077000BA17620773078407950718F071F49EF59E
:100780008FC10EF4E0950B2EBA2FA02D0B01B901ED
:1007900090010C01CA01A0011124FF27591B99F0F7
:1007A000593F50F4503E68F11A16F040A22F232F03
:1007B000342F4427585FF3CF469537952795A79553
:1007C000F0405395C9F77EF41F16BA0B620B730BFA
:1007D000840BBAF09150A1F0FF0FBB1F661F771F6B
:1007E000881FC2F70EC0BA0F621F731F841F48F420
:1007F000879577956795B795F7959E3F08F0B3CFA6
:100800009395880F08F09927EE0F9795879508958F
:10081000D9D008F481E008950CD00FC107D140F081
:10082000FED030F021F45F3F19F0F0C0511139C112
:10083000F3C014D198F39923C9F35523B1F3951B51
:10084000550BBB27AA2762177307840738F09F5FF1
:100850005F4F220F331F441FAA1FA9F333D00E2E60
:100860003AF0E0E830D091505040E695001CCAF7CD
:1008700029D0FE2F27D0660F771F881FBB1F261792
:1008800037074807AB07B0E809F0BB0B802DBF0165
:10089000FF2793585F4F2AF09E3F510568F0B6C07E
:1008A00000C15F3FECF3983EDCF386957795679542
:1008B000B795F7959F5FC9F7880F911D9695879516
:1008C00097F90895E1E0660F771F881FBB1F621735
:1008D00073078407BA0720F0621B730B840BBA0BF3
:1008E000EE1F88F7E095089504D06894B111D9C03F
:1008F0000895BCD088F09F5790F0B92F9927B75131
:10090000A0F0D1F0660F771F881F991F1AF0BA95D3
:10091000C9F712C0B13081F0C3D0B1E00895C0C0B2
:10092000672F782F8827B85F39F0B93FCCF38695C9
:1009300077956795B395D9F73EF490958095709526
:1009400061957F4F8F4F9F4F0895E89409C097FBA3
:100950003EF490958095709561957F4F8F4F9F4F96
:100960009923A9F0F92F96E9BB279395F6958795DA
:1009700077956795B795F111F8CFFAF4BB0F11F49D
:1009800060FF1BC06F5F7F4F8F4F9F4F16C0882344
:1009900011F096E911C0772321F09EE8872F762F7A
:1009A00005C0662371F096E8862F70E060E02AF0BB
:1009B0009A95660F771F881FDAF7880F96958795A7
:1009C00097F90895990F0008550FAA0BE0E8FEEF7C
:1009D00016161706E807F907C0F012161306E40703
:1009E000F50798F0621B730B840B950B39F40A26FC
:1009F00061F0232B242B252B21F408950A2609F4DA
:100A0000A140A6958FEF811D811D089597F99F67DD
:100A100080E870E060E008959FEF80EC0895002486
:100A20000A941616170618060906089500240A9453
:100A300012161306140605060895092E0394000CD9
:100A400011F4882352F0BB0F40F4BF2B11F460FF68
:100A500004C06F5F7F4F8F4F9F4F089557FD905891
:100A6000440F551F59F05F3F71F04795880F97FB72
:100A7000991F61F09F3F79F087950895121613062C
:100A80001406551FF2CF4695F1DF08C0161617065B
:100A90001806991FF1CF8695710561050894089590
:100AA000E894BB2766277727CB0197F908950BD0E9
:100AB000C4CFB5DF28F0BADF18F0952309F0A6CF30
:100AC000ABCF1124EECFCADFA0F3959FD1F3950FE2
:100AD00050E0551F629FF001729FBB27F00DB11DC2
:100AE000639FAA27F00DB11DAA1F649F6627B00D52
:100AF000A11D661F829F2227B00DA11D621F739F3B
:100B0000B00DA11D621F839FA00D611D221F749F48
:100B10003327A00D611D231F849F600D211D822F8F
:100B2000762F6A2F11249F5750408AF0E1F08823D6
:100B30004AF0EE0FFF1FBB1F661F771F881F9150E3
:100B40005040A9F79E3F510570F060CFAACF5F3F9C
:100B5000ECF3983EDCF3869577956795B795F79516
:100B6000E7959F5FC1F7FE2B880F911D969587959E
:100B700097F9089597FB072E16F4009406D077FD99
:100B800008D00BD007FC05D03EF4909581959F4F7F
:100B90000895709561957F4F0895AA1BBB1B51E185
:100BA00007C0AA1FBB1FA617B70710F0A61BB70BDD
:100BB000881F991F5A95A9F780959095BC01CD0182
:100BC0000895A6E1B0E044E050E00AC0242F17D019
:100BD000252F15D000C012D0272F11C0DC01CB016A
:100BE000FC01E199FECF06C0FFBBEEBBE09A319657
:100BF0000DB20D9241505040B8F70895262FE1995B
:100C0000FECF9FBB8EBB2DBB0FB6F894E29AE19A44
:0A0C10000FBE01960895F894FFCF7F
:00000001FF
