:100000001DC024C023C022C021C020C01FC01EC0EC
:100010001DC01CC01BC01AC019C018C017C016C014
:1000200015C014C013C01BC01DC01FC021C023C0F9
:1000300025C027C029C02BC02DC02FC011241FBE32
:10004000CFE5D4E0DEBFCDBF8AD0DEC5D9CF90E00A
:100050008B30910528F5FC01ED5EFF4F099485E09A
:1000600082BB08958DED82BB089586E482BB08951E
:1000700084E582BB08958CE982BB089584E382BB4A
:10008000089584E282BB08958DE582BB089584E0E3
:1000900082BB089584E182BB08958BEF82BB0895F3
:1000A0008FEF82BB0895823061F0833091F0813010
:1000B000C1F49D9903C089E088BB089581E088BBA5
:1000C00008959D9903C08AE088BB089582E088BBAB
:1000D00008959D9903C08CE088BB089584E088BB97
:1000E00008959D9903C088E088BB089518BA0895C3
:1000F0001816190634F422E02A95F1F700C001978A
:10010000D1F70895CF92DF92EF92FF920F931F9352
:10011000CF93DF93062F7A01C1E00F2EFAE0CF2EA6
:10012000D12CF02DB6011FD5162FD72F90DF8C2F95
:10013000BADFC701DDDF812F9D2FCF5FC43091F77C
:100140008AE085DF802FAFDFC701D2DFDF91CF915B
:100150001F910F91FF90EF90DF90CF900895CF9374
:10016000DF93CDB7DEB76F970FB6F894DEBF0FBE43
:10017000CDBF8FE087BB8FEF81BB14BA87E085BB13
:1001800084E08EBD1DBC1CBC88BF80E090E012D511
:100190006D877E878F87988B1E8A1F8A188E198E8F
:1001A00026E62A8B86E68B8B96E69C8B20E42D8BAD
:1001B0001D821E821F8218861A8E1B8E1C8E1D8E1B
:1001C00019821A821B821C8219861A861B861C863B
:1001D000412C512C712C612C20E033243394212CA0
:1001E000B62CA72C152D042D04C0272DB62CA52C1C
:1001F000142D83B3807290E0732C009709F0722C59
:1002000033B3632C30FB882480F8912C30FD622CB2
:1002100033B33270C32ED12C532CC114D10409F046
:10022000522C33B33470E32EF12C432CE114F1043F
:1002300009F0422C21116EC0892B09F06BC02FE10F
:1002400035E84BE050E469857A858B859C8571D2D1
:1002500069877A878B879C872FE135E84BE050E4EC
:100260006D857E858F85988964D26D877E878F871F
:10027000988B08B602FE0AC084E088BF1D8290E415
:10028000998B2CE12F8F86E48E8F1BC06CB57DB5CA
:1002900080E090E04FD32DEB37E346E058E300D405
:1002A0006D83798B8F8F9E8F262F372F482F592F55
:1002B0006E897F89888D998D3CD26E8B7F8B888FDC
:1002C000998F1DBC1CBC2D8139894F8D5E8D6FE1CE
:1002D00075E88BE090E495D269837A838B839C8365
:1002E0002E893F89488D598D69857A858B859C85B6
:1002F00088D26A8F7B8F8C8F9D8F2D8139894F8D0E
:100300005E8D60E070E080E792E47BD26D837E8357
:100310008F83988720E030E040EA50E469817A8159
:100320008B819C81B9D318166CF429813A814B8159
:100330005C8160E070E08AEF95E463D2CAD2698B99
:100340007E8F04C090ED998B27E02E8F83B387704A
:1003500079F440E050E0BA0180E090E030D48FEFD3
:1003600097E823E1815090402040E1F700C0000071
:10037000B11009C0892839F4802F90E0019665E01A
:1003800070E0F1D3082FA1101CC0CD28D1F420E0DB
:1003900030E040E450E46A897B898C899D892DD2C4
:1003A00088233CF01A8A1B8A80E88C8B9FE39D8B04
:1003B00008C026E62A8B86E68B8B96E69C8B20E48B
:1003C0002D8B111109C0EF2839F44D855E856F859D
:1003D000788980E090E0F3D3023009F4B8C030F4BB
:1003E000002359F0013009F46CC0FFCE033009F44A
:1003F000F4C0043009F438C1F8CE20E030E048EC15
:1004000052E469857A858B859C85F7D1882394F49D
:1004100020E030E040E251E469857A858B859C8557
:100420003FD357D2DC01CB0149895E8D62E070E099
:1004300069DEDBCE20E030E04AE754E469857A8566
:100440008B859C85DAD188236CF469857A858B85C8
:100450009C853FD2DC01CB0149895E8D61E070E073
:1004600051DEC3CE20E030E543EC57E469857A8560
:100470008B859C85C2D1882394F42AE037ED43E232
:100480005CE369857A858B859C850AD322D2DC0161
:10049000CB0149895E8D62E070E034DEA6CE2FE6A6
:1004A00032E143E85AE369857A858B859C85F8D2E9
:1004B00010D2DC01CB0149895E8D61E070E022DE63
:1004C00094CE2A893B894C895D8969817A818B81A7
:1004D0009C81E6D26B017C0120E030E040E251E4F7
:1004E0008CD1882384F420E030E048EC52E4C7014A
:1004F000B601D6D2EED1DC01CB0149895E8D63E035
:1005000070E000DE72CE20E030E048EC52E4C7013B
:10051000B60173D1882384F420E030E040E251E456
:10052000C701B601BDD2D5D1DC01CB0149895E8DB1
:1005300062E070E0E7DD59CEC701B601CAD1DC0147
:10054000CB0149895E8D61E070E0DCDD4ECE2A8909
:100550003B894C895D896A8D7B8D8C8D9D8DA0D268
:100560006B017C0120E030E040E251E446D1882379
:1005700084F420E030E048EC52E4C701B60190D2A8
:10058000A8D1DC01CB0149895E8D63E070E0BADD62
:100590002CCE20E030E048EC52E4C701B6012DD16A
:1005A000882384F420E030E040E251E4C701B60142
:1005B00077D28FD1DC01CB0149895E8D62E070E09A
:1005C000A1DD13CEC701B60184D1DC01CB0149897D
:1005D0005E8D61E070E096DD08CE20E030E040E224
:1005E00051E46D817E818F81988507D1882394F4B1
:1005F00020E030E048EC52E46D817E818F81988567
:100600004FD267D1DC01CB0149895E8D63E070E098
:1006100079DDEBCD20E030E048EC52E46D817E8165
:100620008F819885EAD0882394F420E030E040E27E
:1006300051E46D817E818F81988532D24AD1DC016F
:10064000CB0149895E8D62E070E05CDDCECD6D81CD
:100650007E818F8198853DD1DC01CB0149895E8DFA
:1006600061E070E04FDDC1CD20E030E048EC52E4C5
:100670006D857E858F859889C0D0882394F420E08D
:1006800030E040E251E46D857E858F85988908D2FF
:1006900020D1DC01CB0149895E8D62E070E032DD62
:1006A000A4CD20E030E04AE754E46D857E858F8557
:1006B0009889A3D088236CF46D857E858F85988971
:1006C00008D1DC01CB0149895E8D61E070E01ADD63
:1006D0008CCD20E030E543EC57E46D857E858F8539
:1006E00098898BD0882394F42AE037ED43E25CE3C9
:1006F0006D857E858F859889D3D1EBD0DC01CB01C8
:1007000049895E8D62E070E0FDDC6FCD2FE632E15D
:1007100043E85AE36D857E858F859889C1D1D9D00C
:10072000DC01CB0149895E8D61E070E0EBDC5DCDE1
:100730005058BB27AA270ED075C166D130F06BD1B7
:1007400020F031F49F3F11F41EF45BC10EF4E095EC
:10075000E7FB51C1E92F77D180F3BA17620773071E
:100760008407950718F071F49EF58FC10EF4E0959B
:100770000B2EBA2FA02D0B01B90190010C01CA015B
:10078000A0011124FF27591B99F0593F50F4503E06
:1007900068F11A16F040A22F232F342F4427585FF8
:1007A000F3CF469537952795A795F0405395C9F710
:1007B0007EF41F16BA0B620B730B840BBAF09150C8
:1007C000A1F0FF0FBB1F661F771F881FC2F70EC067
:1007D000BA0F621F731F841F48F48795779567953A
:1007E000B795F7959E3F08F0B3CF9395880F08F023
:1007F0009927EE0F979587950895D9D008F481E051
:1008000008950CD00FC107D140F0FED030F021F494
:100810005F3F19F0F0C0511139C1F3C014D198F302
:100820009923C9F35523B1F3951B550BBB27AA2771
:1008300062177307840738F09F5F5F4F220F331FE3
:10084000441FAA1FA9F333D00E2E3AF0E0E830D0AF
:1008500091505040E695001CCAF729D0FE2F27D0B2
:10086000660F771F881FBB1F261737074807AB0780
:10087000B0E809F0BB0B802DBF01FF2793585F4FF5
:100880002AF09E3F510568F0B6C000C15F3FECF30F
:10089000983EDCF3869577956795B795F7959F5FBA
:1008A000C9F7880F911D9695879597F90895E1E00E
:1008B000660F771F881FBB1F621773078407BA076D
:1008C00020F0621B730B840BBA0BEE1F88F7E095C8
:1008D000089504D06894B111D9C00895BCD088F0AF
:1008E0009F5790F0B92F9927B751A0F0D1F0660F1C
:1008F000771F881F991F1AF0BA95C9F712C0B13037
:1009000081F0C3D0B1E00895C0C0672F782F882749
:10091000B85F39F0B93FCCF3869577956795B39575
:10092000D9F73EF490958095709561957F4F8F4FE4
:100930009F4F0895E89409C097FB3EF490958095E9
:10094000709561957F4F8F4F9F4F9923A9F0F92F95
:1009500096E9BB279395F695879577956795B79513
:10096000F111F8CFFAF4BB0F11F460FF1BC06F5FF9
:100970007F4F8F4F9F4F16C0882311F096E911C00B
:10098000772321F09EE8872F762F05C0662371F02C
:1009900096E8862F70E060E02AF09A95660F771F40
:1009A000881FDAF7880F9695879597F90895990F1C
:1009B0000008550FAA0BE0E8FEEF16161706E80729
:1009C000F907C0F012161306E407F50798F0621B4A
:1009D000730B840B950B39F40A2661F0232B242B1F
:1009E000252B21F408950A2609F4A140A6958FEF3E
:1009F000811D811D089597F99F6780E870E060E090
:100A000008959FEF80EC089500240A9416161706A7
:100A100018060906089500240A94121613061406EF
:100A200005060895092E0394000C11F4882352F052
:100A3000BB0F40F4BF2B11F460FF04C06F5F7F4F0A
:100A40008F4F9F4F089557FD9058440F551F59F0F1
:100A50005F3F71F04795880F97FB991F61F09F3FAB
:100A600079F087950895121613061406551FF2CFD4
:100A70004695F1DF08C0161617061806991FF1CF24
:100A800086957105610508940895E894BB2766274B
:100A90007727CB0197F908958ADF08F48FEF08953F
:100AA0000BD0C0CFB1DF28F0B6DF18F0952309F0E6
:100AB000A2CFA7CF1124EACFC6DFA0F3959FD1F331
:100AC000950F50E0551F629FF001729FBB27F00DFC
:100AD000B11D639FAA27F00DB11DAA1F649F662751
:100AE000B00DA11D661F829F2227B00DA11D621FA0
:100AF000739FB00DA11D621F839FA00D611D221F5A
:100B0000749F3327A00D611D231F849F600D211D3D
:100B1000822F762F6A2F11249F5750408AF0E1F0E0
:100B200088234AF0EE0FFF1FBB1F661F771F881F29
:100B300091505040A9F79E3F510570F05CCFA6CF71
:100B40005F3FECF3983EDCF3869577956795B79514
:100B5000F795E7959F5FC1F7FE2B880F911D96953E
:100B6000879597F9089597FB072E16F4009406D001
:100B700077FD08D00BD007FC05D03EF49095819509
:100B80009F4F0895709561957F4F0895AA1BBB1BD9
:100B900051E107C0AA1FBB1FA617B70710F0A61B7D
:100BA000B70B881F991F5A95A9F780959095BC019E
:100BB000CD010895A6E1B0E044E050E00AC0242F42
:100BC00017D0252F15D000C012D0272F11C0DC015F
:100BD000CB01FC01E199FECF06C0FFBBEEBBE09A62
:100BE00031960DB20D9241505040B8F70895262F1E
:100BF000E199FECF9FBB8EBB2DBB0FB6F894E29A56
:0C0C0000E19A0FBE01960895F894FFCF12
:00000001FF
