:1000000095C09CC09BC09AC099C098C097C096C02C
:1000100095C094C093C092C091C090C08FC08EC054
:100020008DC08CC08BC094C096C098C09AC09CC034
:100030009EC0A0C0A2C0A4C0A6C0A8C0AAC0ACC098
:10004000AEC0B0C0B2C0B4C0B6C0B8C0BAC0BCC008
:10005000D0C0CFC0BCC0CDC0BDC0BFC0CAC0C0C072
:10006000C8C0C1C0C6C0C2C09CC213C374C3D5C37C
:1000700002C47DC4F1C458C557C556C555C554C53D
:1000800053C552C551C550C54FC54EC54DC54CC5CC
:100090004BC54AC549C548C547C546C545C544C5FC
:1000A00043C542C541C540C53FC53EC53DC53CC52C
:1000B0003BC53AC539C538C537C536C535C534C55C
:1000C00033C532C531C530C52AC566C2E4C245C391
:1000D000A6C3D3C34EC4C2C429C528C527C526C5D7
:1000E00025C524C523C522C521C520C51FC51EC5DC
:1000F0001DC51CC51BC51AC519C518C517C516C50C
:1001000015C514C513C512C511C510C50FC50EC53B
:100110000DC50CC50BC50AC509C508C507C506C56B
:1001200005C504C503C502C501C5FBC411241FBE16
:10013000CFE5D4E0DEBFCDBFBBD06CC761CF90E0D0
:100140008132910508F055C0FC01ED5EFF4F099426
:1001500085E082BB08958DED82BB089586E482BB65
:10016000089584E582BB08958CE982BB089584E3F9
:1001700082BB089584E282BB08958DE582BB089519
:1001800084E082BB089584E182BB08958BEF82BB3B
:1001900008958CE082BB089584EA82BB089587E2CB
:1001A00082BB089584EC82BB089586E282BB0895E9
:1001B0008EE282BB089585E282BB08958CE882BB03
:1001C00008958DEF82BB089585ED82BB08958CE67E
:1001D00082BB089584EE82BB08958EE082BB0895B1
:1001E0008EEE82BB089586EA82BB089585EE82BBBF
:1001F00008958FEF82BB0895823061F0833091F0D3
:100200008130C1F49D9903C089E088BB089581E0E5
:1002100088BB08959D9903C08AE088BB089582E059
:1002200088BB08959D9903C08CE088BB089584E045
:1002300088BB08959D9903C088E088BB089518BACB
:1002400008951816190634F422E02A95F1F700C033
:100250000197D1F70895CF92DF92EF92FF920F931B
:100260001F93CF93DF93062F7A01C1E00F2EFAE0A0
:10027000CF2ED12CF02DB6017CD6162FD72F5FDFD5
:100280008C2FBADFC701DDDF812F9D2FCF5FC430F8
:1002900091F78AE054DF802FAFDFC701D2DFDF9113
:1002A000CF911F910F91FF90EF90DF90CF90089525
:1002B000CF93DF93CDB7DEB7A2970FB6F894DEBF2A
:1002C0000FBECDBF8FE087BB8FEF81BB14BA87E035
:1002D00085BB84E08EBD1DBC1CBC88BF84E487B98F
:1002E00087EE86B980E090E06BD6698B7A8B8B8B3A
:1002F0009C8B198E1A8E1B8E1C8E26E62D8B36E655
:100300003E8B86E68F8B90E4988F1E821F82188624
:1003100019861D8E1E8E1F8E18A21A821B821C82A9
:100320001D82612C712C1D861E861F86188A212C29
:10033000312C412C512C20E099249394122D83B31D
:10034000807290E09982009709F0198233B3292CCA
:1003500030FBEE24E0F8F12C30FD212C33B3327069
:10036000C32ED12C892CC114D10409F0812C33B3B4
:100370003470A32EB12C092DA114B10409F000E0B2
:10038000A4B1AA87B5B1BB8721116BC0892B09F035
:1003900068C08D859E85AF85B8890196A11DB11D68
:1003A0008D879E87AF87B88B89899A89AB89BC89ED
:1003B0000196A11DB11D898B9A8BAB8BBC8B08B6A6
:1003C00002FE0AC094E098BF1E82A0E4AC87BCE1A4
:1003D000BAA326E429A31BC06CB57DB580E090E0EC
:1003E000AFD42DEB37E346E058E360D56E837C87CE
:1003F0008AA399A3262F372F482F592F698D7A8DDD
:100400008B8D9C8D9CD3698F7A8F8B8F9C8F1DBC1D
:100410001CBC2E813C854AA159A16FE175E88BE097
:1004200090E4F5D36A837B838C839D836D857E8581
:100430008F85988985D4298D3A8D4B8D5C8DE7D336
:100440006D8F7E8F8F8F98A32E813C854AA159A1F5
:1004500060E070E080E792E4DAD36E837F83888780
:10046000998720E030E040EA50E46A817B818C810A
:100470009D8118D518166CF42A813B814C815D81D1
:1004800060E070E08AEF95E4C2D32ED46C8779A344
:1004900004C030ED3C8787E089A391ED691697E0B1
:1004A000790688F4A5E21A9F912D1124812F891BCA
:1004B0008695890F86958695982F990F990F990F94
:1004C000981B191B07C00F2EF1ED6F2EF7E07F2E42
:1004D000F02D10E383B3877089F440E050E0BA0157
:1004E00080E090E072D5BFEF27E833E1B1502040C3
:1004F0003040E1F700C00000612C712C51100BC09E
:10050000EF2849F4812F90E0019667E070E031D543
:10051000182F612C712C411020C0CD28F1F420E05F
:1005200030E040E450E46D897E898F89988D6BD3EB
:1005300088234CF01D8A1E8A80E88F8B9FE3988F5A
:10054000612C712C0AC0A6E6AD8BB6E6BE8B26E602
:100550002F8B30E4388F612C712C311013C0AB28F5
:1005600089F449895A896B897C8980E090E02DD58E
:10057000812F90E08133910508F0D6C2FC01EC5C3C
:10058000FF4F0994812F90E08133910508F0CEC28E
:10059000FC01EB59FF4F099488EC68167104C8F40C
:1005A00002C0612C712C8EE0CADD83E025DE8C85D3
:1005B00099A147DE83E1C3DD82E01EDE8C8599A12F
:1005C00040DE85E0BCDD892D17DE8C8599A139DE02
:1005D000ADC26D857E858F859889B2D32FE135E8D0
:1005E0004BE050E463D45B016C0120E030E048EC68
:1005F00052E409D3882384F420E030E040E251E45F
:10060000C601B50153D46BD3DC01CB014C8559A194
:1006100062E070E020DE8AC220E030E04AE754E485
:10062000C601B501F0D288235CF4C601B50157D3E9
:10063000DC01CB014C8559A161E070E00CDE76C293
:1006400020E030E543EC57E4C601B501DCD2882355
:1006500084F42AE037ED43E25CE3C601B50126D419
:100660003ED3DC01CB014C8559A162E070E0F3DDA3
:100670005DC22FE632E143E85AE3C601B50116D464
:100680002ED3DC01CB014C8559A161E070E0E3DDA4
:100690004DC2612C712C98EC69167104B0F485E0A0
:1006A0004EDD83E0A9DD8C8599A1CBDD8AE147DDB4
:1006B00082E0A2DD8C8599A1C4DD8FE040DD892D2B
:1006C0009BDD8C8599A1BDDD31C22D893E894F8985
:1006D000588D6A817B818C819D81E8D35B016C019F
:1006E00020E030E040E251E48ED2882384F420E020
:1006F00030E048EC52E4C601B501D8D3F0D2DC01B9
:10070000CB014C8559A163E070E0A5DD0FC220E06C
:1007100030E048EC52E4C601B50175D2882384F478
:1007200020E030E040E251E4C601B501BFD3D7D2AA
:10073000DC01CB014C8559A162E070E08CDDF6C193
:10074000C601B501CCD2DC01CB014C8559A161E0D9
:1007500070E081DDEBC1612C712CA8EC6A1671048C
:10076000B0F48BE0ECDC83E047DD8C8599A169DD9A
:1007700080E2E5DC82E040DD8C8599A162DD81E1EB
:10078000DEDC892D39DD8C8599A15BDDCFC12D891A
:100790003E894F89588D6D8D7E8D8F8D98A186D322
:1007A0005B016C0120E030E040E251E42CD2882370
:1007B00084F420E030E048EC52E4C601B50176D381
:1007C0008ED2DC01CB014C8559A163E070E043DDA2
:1007D000ADC120E030E048EC52E4C601B50113D2CF
:1007E000882384F420E030E040E251E4C601B50102
:1007F0005DD375D2DC01CB014C8559A162E070E07C
:100800002ADD94C1C601B5016AD2DC01CB014C8559
:1008100059A161E070E01FDD89C1612C712CB8EC39
:100820006B167104B0F48EE18ADC83E0E5DC8C8524
:1008300099A107DD83E183DC82E0DEDC8C8599A170
:1008400000DD87E17CDC892DD7DC8C8599A1F9DC82
:100850006DC120E030E040E752E4698D7A8D8B8DE8
:100860009C8DD5D13CD2DC01CB014C8559A161E0F6
:1008700070E0F1DC5BC1612C712C28EC6216710414
:10088000B0F48EE15CDC83E0B7DC8C8599A1D9DC27
:1008900089E155DC82E0B0DC8C8599A1D2DC8EE167
:1008A0004EDC892DA9DC8C8599A1CBDC3FC16989FF
:1008B0007A898B899C8944D22FE135E84BE050E45A
:1008C000F5D25B016C0120E030E048EC52E49BD1B2
:1008D000882384F420E030E040E251E4C601B50111
:1008E000E5D2FDD1DC01CB014C8559A162E070E07D
:1008F000B2DC1CC120E030E04AE754E4C601B50197
:1009000082D188235CF4C601B501E9D1DC01CB01B9
:100910004C8559A161E070E09EDC08C120E030E523
:1009200043EC57E4C601B5016ED1882384F42AE074
:1009300037ED43E25CE3C601B501B8D2D0D1DC01AA
:10094000CB014C8559A162E070E085DCEFC02FE659
:1009500032E143E85AE3C601B501A8D2C0D1DC01B7
:10096000CB014C8559A161E070E075DCDFC0612CE2
:10097000712C38EC63167104B0F48EE1E0DB83E097
:100980003BDC8C8599A15DDC8FE0D9DB82E034DC37
:100990008C8599A156DC87E1D2DB892D2DDC8C85F5
:1009A00099A14FDCC3C08B85682F70E0762F662736
:1009B0009A85690F711D072E000C880B990BC2D107
:1009C00020E030E04AEF53E471D220E030E040E82C
:1009D0005AE36CD220E030E048E452E4AFD05B014F
:1009E0006C0120E030E040E251E40DD1882384F432
:1009F00020E030E048EC52E4C601B50157D26FD197
:100A0000DC01CB014C8559A163E070E024DC8EC091
:100A100020E030E048EC52E4C601B501F4D0882370
:100A200084F420E030E040E251E4C601B5013ED25A
:100A300056D1DC01CB014C8559A162E070E00BDCA2
:100A400075C0C601B5014BD1DC01CB014C8559A164
:100A500061E070E000DC6AC0612C712CA8EC6A16C1
:100A60007104B0F48CE16BDB83E0C6DB8C8599A16B
:100A7000E8DB8AE164DB82E0BFDB8C8599A1E1DB06
:100A800087E15DDB892DB8DB8C8599A1DADB4EC06F
:100A900020E030E040E251E46E817F8188859985D5
:100AA000B2D0882394F420E030E048EC52E46E8128
:100AB0007F8188859985FAD112D1DC01CB014C85E3
:100AC00059A163E070E0C7DB31C020E030E048ECC2
:100AD00052E46E817F818885998595D0882394F42E
:100AE00020E030E040E251E46E817F818885998585
:100AF000DDD1F5D0DC01CB014C8559A162E070E07D
:100B0000AADB14C06E817F8188859985E8D0DC01DD
:100B1000CB014C8559A161E070E09DDB07C0612CE1
:100B2000712C80E069DB02C0612C712CBFEF6B1A65
:100B30007B0A2981522C482C302E01CC5058BB27DF
:100B4000AA270ED075C166D130F06BD120F031F4F8
:100B50009F3F11F41EF45BC10EF4E095E7FB51C119
:100B6000E92F77D180F3BA176207730784079507D7
:100B700018F071F49EF58FC10EF4E0950B2EBA2F8C
:100B8000A02D0B01B90190010C01CA01A001112493
:100B9000FF27591B99F0593F50F4503E68F11A163F
:100BA000F040A22F232F342F4427585FF3CF4695D0
:100BB00037952795A795F0405395C9F77EF41F16F2
:100BC000BA0B620B730B840BBAF09150A1F0FF0FBC
:100BD000BB1F661F771F881FC2F70EC0BA0F621FA8
:100BE000731F841F48F4879577956795B795F79598
:100BF0009E3F08F0B3CF9395880F08F09927EE0F2A
:100C0000979587950895D9D008F481E008950CD080
:100C10000FC107D140F0FED030F021F45F3F19F052
:100C2000F0C0511139C1F3C014D198F39923C9F31D
:100C30005523B1F3951B550BBB27AA2762177307E2
:100C4000840738F09F5F5F4F220F331F441FAA1F96
:100C5000A9F333D00E2E3AF0E0E830D09150504056
:100C6000E695001CCAF729D0FE2F27D0660F771F04
:100C7000881FBB1F261737074807AB07B0E809F0E6
:100C8000BB0B802DBF01FF2793585F4F2AF09E3F7B
:100C9000510568F0B6C000C15F3FECF3983EDCF34D
:100CA000869577956795B795F7959F5FC9F7880FF4
:100CB000911D9695879597F90895E1E0660F771F46
:100CC000881FBB1F621773078407BA0720F0621BD7
:100CD000730B840BBA0BEE1F88F7E095089504D0D0
:100CE0006894B111D9C00895BCD088F09F5790F096
:100CF000B92F9927B751A0F0D1F0660F771F881F41
:100D0000991F1AF0BA95C9F712C0B13081F0C3D05B
:100D1000B1E00895C0C0672F782F8827B85F39F0F9
:100D2000B93FCCF3869577956795B395D9F73EF49F
:100D300090958095709561957F4F8F4F9F4F089547
:100D4000E89409C097FB3EF4909580957095619565
:100D50007F4F8F4F9F4F9923A9F0F92F96E9BB271B
:100D60009395F695879577956795B795F111F8CF97
:100D7000FAF4BB0F11F460FF1BC06F5F7F4F8F4F02
:100D80009F4F16C0882311F096E911C0772321F0F8
:100D90009EE8872F762F05C0662371F096E8862F90
:100DA00070E060E02AF09A95660F771F881FDAF7E7
:100DB000880F9695879597F90895990F0008550F14
:100DC000AA0BE0E8FEEF16161706E807F907C0F0D1
:100DD00012161306E407F50798F0621B730B840BD9
:100DE000950B39F40A2661F0232B242B252B21F4B3
:100DF00008950A2609F4A140A6958FEF811D811D53
:100E0000089597F99F6780E870E060E008959FEF8C
:100E100080EC089500240A94161617061806090691
:100E2000089500240A941216130614060506089560
:100E3000092E0394000C11F4882352F0BB0F40F4E8
:100E4000BF2B11F460FF04C06F5F7F4F8F4F9F4F28
:100E5000089557FD9058440F551F59F05F3F71F0AA
:100E60004795880F97FB991F61F09F3F79F0879511
:100E70000895121613061406551FF2CF4695F1DF9A
:100E800008C0161617061806991FF1CF869571052A
:100E9000610508940895E894BB2766277727CB015E
:100EA00097F908958ADF08F48FEF08950BD0C0CF2B
:100EB000B1DF28F0B6DF18F0952309F0A2CFA7CF55
:100EC0001124EACFC6DFA0F3959FD1F3950F50E030
:100ED000551F629FF001729FBB27F00DB11D639FEC
:100EE000AA27F00DB11DAA1F649F6627B00DA11D92
:100EF000661F829F2227B00DA11D621F739FB00D38
:100F0000A11D621F839FA00D611D221F749F3327A7
:100F1000A00D611D231F849F600D211D822F762F40
:100F20006A2F11249F5750408AF0E1F088234AF03D
:100F3000EE0FFF1FBB1F661F771F881F9150504089
:100F4000A9F79E3F510570F05CCFA6CF5F3FECF351
:100F5000983EDCF3869577956795B795F795E79575
:100F60009F5FC1F7FE2B880F911D9695879597F986
:100F7000089597FB072E16F4009406D077FD08D04D
:100F80000BD007FC05D03EF4909581959F4F0895B6
:100F9000709561957F4F0895AA1BBB1B51E107C057
:100FA000AA1FBB1FA617B70710F0A61BB70B881FF9
:100FB000991F5A95A9F780959095BC01CD01089588
:100FC000A6E1B0E044E050E00AC0242F17D0252F5E
:100FD00015D000C012D0272F11C0DC01CB01FC01BD
:100FE000E199FECF06C0FFBBEEBBE09A31960DB291
:100FF0000D9241505040B8F70895262FE199FECF49
:101000009FBB8EBB2DBB0FB6F894E29AE19A0FBE40
:0810100001960895F894FFCF4A
:00000001FF
